{
  "transactions": [
    {
      "hash": "0xfba59453ba3d47b4bdd1abd45c5022743e7dea5628bf7539fe71b216b6d7e5c0",
      "transactionType": "CALL",
      "contractName": null,
      "contractAddress": "0x05e73354cfdd6745c338b50bcfdfa3aa6fa03408",
      "function": "initialize((address,address,uint24,int24,address),uint160)",
      "arguments": [
        "(0x036CbD53842c5426634e7929541eC2318f3dCF7e, 0x4200000000000000000000000000000000000006, 500, 60, 0x2Af2B1F02685FC6c6b4f7fA17e1FcFc4c2eeB0C0)",
        "79228162514264337593543950336"
      ],
      "transaction": {
        "from": "0x1ab67c4ac117f3c850d5a93784b7701cc5816387",
        "to": "0x05e73354cfdd6745c338b50bcfdfa3aa6fa03408",
        "gas": "0x2cfa6",
        "value": "0x0",
        "input": "0x6276cbbe000000000000000000000000036cbd53842c5426634e7929541ec2318f3dcf7e000000000000000000000000420000000000000000000000000000000000000600000000000000000000000000000000000000000000000000000000000001f4000000000000000000000000000000000000000000000000000000000000003c0000000000000000000000002af2b1f02685fc6c6b4f7fa17e1fcfc4c2eeb0c00000000000000000000000000000000000000001000000000000000000000000",
        "nonce": "0x3d",
        "chainId": "0x14a34"
      },
      "additionalContracts": [],
      "isFixedGasLimit": false
    }
  ],
  "receipts": [
    {
      "status": "0x1",
      "cumulativeGasUsed": "0x1fc40e",
      "logs": [
        {
          "address": "0x05e73354cfdd6745c338b50bcfdfa3aa6fa03408",
          "topics": [
            "0xdd466e674ea557f56295e2d0218a125ea4b4f0f6f3307b95f85e6110838d6438",
            "0xc5b6bac567710858d2d3b6fe70857fdea3b73ce0afa397a955c2c9f1ebb0bab0",
            "0x000000000000000000000000036cbd53842c5426634e7929541ec2318f3dcf7e",
            "0x0000000000000000000000004200000000000000000000000000000000000006"
          ],
          "data": "0x00000000000000000000000000000000000000000000000000000000000001f4000000000000000000000000000000000000000000000000000000000000003c0000000000000000000000002af2b1f02685fc6c6b4f7fa17e1fcfc4c2eeb0c000000000000000000000000000000000000000010000000000000000000000000000000000000000000000000000000000000000000000000000000000000000",
          "blockHash": "0x5da7756de5c80a68b7f3b8676399abf36ae759a7d375678e38ef1dc88c362798",
          "blockNumber": "0x16e826c",
          "transactionHash": "0xfba59453ba3d47b4bdd1abd45c5022743e7dea5628bf7539fe71b216b6d7e5c0",
          "transactionIndex": "0xc",
          "logIndex": "0x1d",
          "removed": false
        }
      ],
      "logsBloom": "0x00000000000000000000000000000000000000000000000000000000000000000000000100000000000000000000000000000000000000000020000000000000000000000000000000000000000000000000000000000000000000000000000000000000000000000100000000000000000010000000000000000000000000000000000044000008000000000000000000000001000000000000000000200000000000000000000000000000000000000000000000000000100000000000000000000000001004000000000000000000000010000000000000000000000000000000000000000000000000000040000001000000000000000000000000000000",
      "type": "0x2",
      "transactionHash": "0xfba59453ba3d47b4bdd1abd45c5022743e7dea5628bf7539fe71b216b6d7e5c0",
      "transactionIndex": "0xc",
      "blockHash": "0x5da7756de5c80a68b7f3b8676399abf36ae759a7d375678e38ef1dc88c362798",
      "blockNumber": "0x16e826c",
      "gasUsed": "0x1ec12",
      "effectiveGasPrice": "0x7bb16",
      "from": "0x1ab67c4ac117f3c850d5a93784b7701cc5816387",
      "to": "0x05e73354cfdd6745c338b50bcfdfa3aa6fa03408",
      "contractAddress": null,
      "l1BaseFeeScalar": "0x44d",
      "l1BlobBaseFee": "0x1",
      "l1BlobBaseFeeScalar": "0xa118b",
      "l1Fee": "0x75",
      "l1GasPrice": "0xc",
      "l1GasUsed": "0x86c"
    }
  ],
  "libraries": [],
  "pending": [],
  "returns": {},
  "timestamp": 1743807402,
  "chain": 84532,
  "commit": "64c2fdd"
}